:020000040800F2
:10000000283500209D0100085F300008292F0008D6
:100010005D300008A51900083F320008000000000C
:100020000000000000000000000000006330000835
:10003000591A00080000000061300008653000080F
:10004000B7010008B7010008B7010008B7010008B0
:10005000B7010008B7010008B7010008B7010008A0
:10006000B7010008B7010008B7010008B701000890
:10007000B7010008B7010008B7010008B701000880
:10008000B7010008B701000871180008B70100089F
:10009000B7010008B7010008B7010008B701000860
:1000A000B7010008B7010008B7010008B701000850
:1000B000B7010008B7010008B7010008B701000840
:1000C000B7010008B7010008B7010008B701000830
:1000D000B7010008B7010008B7010008B701000820
:1000E000B7010008B7010008B7010008B701000810
:1000F000B7010008B7010008B7010008B701000800
:10010000B7010008B7010008B7010008B7010008EF
:10011000B7010008B7010008B7010008B7010008DF
:10012000A9190008B7010008B7010008B7010008C5
:10013000B70100080000000000000000B70100083F
:10014000B7010008B7010008B7010008B7010008AF
:10015000B7010008B7010008B7010008B70100089F
:10016000B7010008B7010008B7010008B70100088F
:10017000B7010008B70100080000000000000000FF
:10018000B7010008B7010008DFF80CD001F016FB3A
:1001900000480047053300082835002006488047FE
:1001A00006480047FEE7FEE7FEE7FEE7FEE7FEE75C
:1001B000FEE7FEE7FEE7FEE7FD30000889010008E4
:1001C0002DE9F04F4FF0000C4FF0000301EB9C5E67
:1001D000BEF90250BEF900400EF5806EBEF90290E5
:1001E000BEF900800EF5806EBEF90270BEF90060A7
:1001F0000EF5806EBEF902B0BEF900A00EF5806E5D
:10020000D044D944A8EB4A0AA9EB4B0B4FEAA4040B
:100210004FEAA50504EBA60405EBA705A4EB6606CB
:10022000A5EB670704EBA80405EBA905A4EB680898
:10023000A5EB690906EBAB06A7EBAA07A6EB6B0BD0
:1002400007EB6A0A458020F8044B478020F8046BCE
:10025000A0F8029020F8048BA0F802A020F804BBBC
:1002600003F1010393FAA3FCB3F5807FAED1A0EBB9
:1002700082014FF0100312090FF2341000F1000058
:1002800006B403EB430C6144A2F5803202EB8332E7
:10029000B1F90250B1F90040A1EB0301B0F902B08D
:1002A000B0F900A000F10400A5EB040E0EFB0BFC5E
:1002B0000AEB4B0E05FB0ACB04FB0ECAB1F9025048
:1002C000B1F90040A1EB0301B0F90290B0F9008050
:1002D00000F10400A5EB040E0EFB09FC08EB490E2F
:1002E00005FB08C904FB0EC8B1F90250B1F9004082
:1002F000A1EB0301B0F90270B0F9006000F1040055
:10030000A5EB040E0EFB07FC06EB470E05FB06C72C
:1003100004FB0EC6B1F90250B1F9004001F1000131
:10032000D044D944A8EB4A0AA9EB4B0B4FEAA404EA
:100330004FEAA50504EB264405EB2745A4EBE6367A
:10034000A5EBE73704EB284405EB2945A4EBE83897
:10035000A5EBE93906EB2B46A7EB2A47A6EBEB3BCF
:1003600007EBEA3A4D800C8019444F800E80194407
:10037000A1F80290A1F800801944A1F802A021F888
:1003800004BBB2F5803283DA03EB430C6144A2F183
:1003900001025FEA024E18BFA0EB0C007FF476AFBB
:1003A00006BC4FEA830392087FF46AAFBDE8F08F82
:1003B0000040000000400000004000005DDD213BE7
:1003C000A3227E180000412D7EA5412D0000412D65
:1003D00000C000405DDD82E75DDD213B7EA5412D53
:1003E000004000000040000000400000AA2A9412D3
:1003F0006B39460649327C0CA8118E2349327C0C9D
:10040000A3227E1821F77931AA2A9412A8118E23EB
:100410005DDD213BA3227E180000412D95C6B13F32
:10042000461A2B1E58EE3735BEB4C53EA8118E2392
:100430005DDD213B63A97138DF089A28B7CDC53E41
:100440007EA5412D0000412D00C0004063A92B1E58
:1004500021F77931BEB4C53EBEB47C0C58EE3735B9
:1004600061AC213B95C6BAF9BAE571383BA737357F
:100470005DDD82E75DDD213B7EA5412D21F766D75D
:1004800056D53F3D3BA78E23A811C9CAB7CDC53E5F
:1004900061AC7E18AA2AC1C295C6B13FBEB47C0C1D
:1004A0000040000000400000004000001E3BB5047A
:1004B000693E9201C83C2403EB356409C83C24031F
:1004C0006B3946066C30060E1E3BB504EB356409ED
:1004D000AA2A94126B39460649327C0CAE240917BD
:1004E000AF37D607882E8D0F7E1E5D1BEB35640956
:1004F000AA2A941224188C1F1E34F10AB3269015D0
:10050000A8118E2349327C0CA3227E18140B60277D
:100510006C30060E7E1E5D1B7104FB2A882E8D0F2B
:10052000461A2B1EC7FD5A2E9D2C1211FE15E720D0
:1005300021F77931AA2A9412A8118E2387F0533417
:10054000B2281314480D202602EAE536B32690158A
:10055000DF089A289CE32B39AE2409177104FB2A83
:100560005DDD213BA3227E180000412D4ED7C53C06
:100570009320EF198FFB6C2F78D1153E7E1E5D1BEB
:1005800021F77931E2CB0F3F641CC61CB8F2683307
:1005900095C6B13F461A2B1E58EE373597C1FB3F23
:1005A00024188C1F02EAE536F0BCEC3FFE15E7206C
:1005B000BAE57138A6B8853FD5133D2282E1DB3913
:1005C000BEB4C53EA8118E235DDD213B40B1AF3DD9
:1005D000790FDA244DD9423C2EAE423C480D2026FC
:1005E00056D53F3D8EAB823A140B602778D1153E2D
:1005F00063A97138DF089A28B7CDC53EB1A7123676
:10060000A906CE2915CA4F3F78A668337104FB2A84
:1006100095C6B13FBCA576303902212C38C3EC3FDA
:100620007EA5412D0000412D00C00040BCA5CE2973
:10063000C7FD5A2EF0BCEC3F78A620268FFB6C2F0E
:1006400009BAB13FB1A73D2257F976304DB74F3FB8
:1006500063A92B1E21F77931BEB4C53E8EABEF19CD
:10066000ECF474325EB2153E2EAE9015B8F26833DB
:100670002DB03F3D40B1121187F053342EAE423CB5
:10068000BEB47C0C58EE373561AC213BA6B8D6071A
:100690002BEC1236C8AADB39F0BC240302EAE5369B
:1006A00063A9713897C16EFEDCE7B03734A8E53630
:1006B00095C6BAF9BAE571383BA73735E2CB0FF5E5
:1006C0009CE32B3978A6683378D173F082E1DB396B
:1006D000EDA579314ED7EDEB6DDF823A99A56C2F00
:1006E0005DDD82E75DDD213B7EA5412D9CE33AE3A4
:1006F00052DBB63B99A5FB2A02EA19DF4DD9423CF1
:10070000EDA59A2887F026DB4ED7C53C78A6202693
:1007100021F766D756D53F3D3BA78E23C7FDDFD3D4
:1007200063D3AF3D34A8E720710494D078D1153E4F
:1007300063A92B1E140B8CCD94CF723EC8AA5D1BEF
:10074000A811C9CAB7CDC53E61AC7E18241850C8DF
:10075000E2CB0F3F2EAE90157E1E25C615CA4F3F29
:100760002DB09412AE244AC451C8853F5EB28D0F9D
:10077000AA2AC1C295C6B13FBEB47C0C6C308EC1F2
:10078000E2C4D43F4DB76409EB35B1C038C3EC3F88
:1007900009BA46061E3B2CC097C1FB3FF0BC2403A0
:1007A000004000000040000000400000D03E2E014C
:1007B0009B3F6500363FC9009A3D5B02363FC9004A
:1007C000693E92015F3C8803D03E2E019A3D5B0258
:1007D0001E3BB504693E9201C83C2403D939E205A9
:1007E000023EF701F43BED038E380E079A3D5B02A3
:1007F0001E3BB5043F373908313DC002463A7E05FD
:10080000EB356409C83C24036B39460692348E0AE2
:100810005F3C88038E380E073433B70BF43BED038F
:10082000AF37D607D231DF0C8A3B5104CE369D0854
:100830006C30060E1E3BB504EB356409022F2B0FFE
:10084000B23A1A0505352B0A932D5010463A7E050B
:100850001E34F10A212C7311D939E2053433B70B58
:10086000AA2A94126B39460649327C0C3129B413FA
:10087000FD38AA065B31410DB327D2148E380E071E
:100880006C30060E3226EE151F3872077B2FCA0E0B
:10089000AE240917AF37D607882E8D0F26232118CF
:1008A0003F373908932D50109C213719CE369D08BB
:1008B0009D2C12110E204B1A5D360109A42BD31169
:1008C0007E1E5D1BEB356409AA2A9412EB1C6C1C7E
:1008D0007835C709AF295413561B791D05352B0AE6
:1008E000B2281314BE19841E92348E0AB327D21470
:1008F00024188C1F1E34F10AB326901588169120F7
:10090000A933540BB1254C16EA1493213433B70B99
:10091000AE2409174A139222BF321A0CA923C41716
:10092000A8118E2349327C0CA3227E18051088243E
:10093000D231DF0C9C213719610E7E255B31410DD0
:100940009320EF19BB0C7126E430A40D891FA71A60
:10095000140B60276C30060E7E1E5D1B6D094C2843
:10096000F42F680E721D121CC40735297B2FCA0E86
:10097000641CC61C1B061A2A022F2B0F561B791D3E
:100980007104FB2A882E8D0F461A2B1EC702D82B06
:100990000E2EEE0F3519DC1E1C01B22C932D5010BB
:1009A00024188C1F72FF882D182DB11011173A20B2
:1009B000C7FD5A2E9D2C1211FE15E7201DFC282F75
:1009C000212C7311EA14932173FAF22FA42BD31163
:1009D000D5133D22CAF8B830282B3412BF12E722B3
:1009E00021F77931AA2A9412A8118E2379F536328B
:1009F0002D2AF41291103524D2F3EF32AF2954137B
:100A0000790FDA242CF2A3333129B413610E7E2539
:100A100087F05334B2281314480D2026E3EEFF3438
:100A2000332873142E0CC12641EDA535B327D214FB
:100A3000140B6027A1EB483633273115FA09FE273E
:100A400002EAE536B3269015DF089A2865E87E3776
:100A50003226EE15C4073529CBE61238B1254C16DF
:100A6000A906CE2932E5A1382F25AB168D05652ABA
:100A70009CE32B39AE2409177104FB2A08E2B03934
:100A80002B24661755038F2B77E0303AA923C41720
:100A90003902212CE9DEAB3A262321181C01B22CA5
:100AA0005DDD213BA3227E180000412DD5DB923B6A
:100AB0001F22DB18E4FECF2D4FDAFD3B9C213719B6
:100AC000C7FD5A2ECDD8643C17219319ABFCE42EF8
:100AD0004ED7C53C9320EF198FFB6C2FD3D5213D0A
:100AE0000E204B1A73FAF22F5CD4783D891FA71A97
:100AF00057F97630E8D2C93D041F021B3CF8F930A3
:100B000078D1153E7E1E5D1B21F779310CD05C3EFD
:100B1000F81DB81B06F6F831A5CE9D3E721D121CBD
:100B2000ECF4743241CDD83EEB1C6C1CD2F3EF32A6
:100B3000E2CB0F3F641CC61CB8F2683388CA403F42
:100B4000DD1B201D9FF1DF3332C96B3F561B791D22
:100B500087F05334E1C7913FCE1AD31D6FEFC634EF
:100B600095C6B13F461A2B1E58EE37354EC5CC3FC1
:100B7000BE19841E41EDA5350CC4E13F3519DC1EBC
:100B80002BEC1236CFC2F13FAD18341F16EB7D3679
:100B900097C1FB3F24188C1F02EAE53665C0004070
:100BA0009B17E31FEFE84B3738BFFF3F11173A2081
:100BB000DCE7B03711BEF83F88169120CBE612383B
:100BC000F0BCEC3FFE15E720BAE57138D4BBDB3F43
:100BD00074153D21AAE4CF38BFBAC43FEA1493216B
:100BE0009CE32B39AFB9A73F5F14E8218EE284392B
:100BF000A6B8853FD5133D2282E1DB39A2B75D3F20
:100C00004A13922277E0303AA5B6303FBF12E7226E
:100C10006DDF823AAFB5FD3E34123B2364DED33A3A
:100C2000BEB4C53EA8118E235DDD213BD5B3883E01
:100C30001D11E22357DC6D3BF2B2453E9110352485
:100C400052DBB63B15B2FC3D051088244FDAFD3B64
:100C500040B1AF3D790FDA244DD9423C71B05B3DD4
:100C6000ED0E2C254DD8853CA9AF033D610E7E25A8
:100C70004ED7C53CE8AEA53CD40DCF2551D6033D9B
:100C80002EAE423C480D202656D53F3D7BADDA3B8B
:100C9000BB0C71265CD4783DD0AC6D3B2E0CC126CC
:100CA00063D3AF3D2BACFA3AA10B11276DD2E33DD4
:100CB0008EAB823A140B602778D1153EF8AA063A1B
:100CC000870AAF2785D0453E6AAA8439FA09FE27EC
:100CD00094CF723EE3A9FD386D094C28A5CE9D3E08
:100CE00063A97138DF089A28B7CDC53EEBA8E13774
:100CF0005208E728CCCCEB3E7BA84B37C4073529FC
:100D0000E2CB0F3F12A8B13636078129FBCA303F2C
:100D1000B1A71236A906CE2915CA4F3F57A76E357F
:100D20001B061A2A32C96B3F05A7C6348D05652AF2
:100D300051C8853FBBA61934FF04B02A72C79C3F37
:100D400078A668337104FB2A95C6B13F3EA6B2323D
:100D5000E303452BBAC5C43F0BA6F83155038F2BCF
:100D6000E2C4D43FE0A53931C702D82B0CC4E13F1F
:100D7000BCA576303902212C38C3EC3FA1A5AF2F9A
:100D8000AA016A2C66C2F53F8DA5E42E1C01B22C87
:100D900097C1FB3F81A5152E8E00FA2CCAC0FF3FDC
:100DA0007EA5412D0000412D00C0004081A56A2C88
:100DB00072FF882D38BFFF3F8DA58F2BE4FECF2D0E
:100DC00073BEFB3FA1A5B02A56FE152EB0BDF53F60
:100DD000BCA5CE29C7FD5A2EF0BCEC3FE0A5E72804
:100DE00039FD9F2E32BCE13F0BA6FE27ABFCE42E63
:100DF00077BBD43F3EA611271DFC282FBFBAC43FA6
:100E000078A620268FFB6C2F09BAB13FBBA62C25F4
:100E100001FBAF2F56B99C3F05A7352473FAF22F7B
:100E2000A6B8853F57A73B23E5F93430F8B76B3FA9
:100E3000B1A73D2257F976304DB74F3F12A83D215B
:100E4000CAF8B830A5B6303F7BA83A203CF8F93054
:100E500000B60F3FEBA8341FAEF739315EB5EB3E5D
:100E600063A92B1E21F77931BEB4C53EE3A9201D2D
:100E700093F6B93122B49D3E6AAA121C06F6F831E7
:100E800088B3723EF8AA021B79F53632F2B2453EBB
:100E90008EABEF19ECF474325EB2153E2BACDB185E
:100EA0005FF4B232CDB1E33DD0ACC417D2F3EF3230
:100EB00040B1AF3D7BADAB1645F32C33B5B0783DBB
:100EC0002EAE9015B8F268332DB03F3DE8AE7314E6
:100ED0002CF2A333A9AF033DA9AF54139FF1DF3325
:100EE00028AFC53C71B0341213F11934A9AE853C5A
:100EF00040B1121187F053342EAE423C15B2EE0FC2
:100F0000FBEF8D34B6ADFD3BF2B2CA0E6FEFC634C7
:100F100041ADB63BD5B3A40DE3EEFF34D0AC6D3B91
:100F2000BEB47C0C58EE373561AC213BAFB5540BE9
:100F3000CCED6E35F6ABD33AA5B62B0A41EDA5350F
:100F40008EAB823AA2B70109B6ECDC3529AB303A58
:100F5000A6B8D6072BEC1236C8AADB39AFB9AA0659
:100F6000A1EB48366AAA8439BFBA7E0516EB7D36F6
:100F70000FAA2B39D4BB51048CEAB136B7A9CF38AC
:100F8000F0BC240302EAE53663A9713811BEF7010B
:100F900078E9183712A9123838BFC900EFE84B3783
:100FA000C5A8B03765C09BFF65E87E377BA84B3787
:100FB00097C16EFEDCE7B03734A8E536CFC240FDFE
:100FC00053E7E137F1A77D360CC413FCCBE61238AA
:100FD000B1A712364EC5E6FA42E6423874A7A535E7
:100FE00095C6BAF9BAE571383BA73735E1C78EF82F
:100FF00032E5A13805A7C63432C963F7AAE4CF3871
:10100000D3A6533488CA39F623E4FD38A4A6DF33C7
:10101000E2CB0FF59CE32B3978A6683341CDE6F39C
:1010200015E3583950A6EF32A5CEBFF28EE28439CF
:101030002CA674320CD098F108E2B0390BA6F83126
:1010400078D173F082E1DB39EDA57931E8D24FEF49
:10105000FCE0063AD3A5F9305CD42DEE77E0303AC7
:10106000BCA57630D3D50CEDF2DF593AA9A5F22F05
:101070004ED7EDEB6DDF823A99A56C2FCDD8CFEA34
:10108000E9DEAB3A8DA5E42E4FDAB4E964DED33A5B
:1010900085A55A2ED5DB9AE8E1DDFA3A7FA5CF2D5A
:1010A0005DDD82E75DDD213B7EA5412DE9DE6DE65C
:1010B000DADC473B7FA5B22C77E059E557DC6D3B86
:1010C00085A5212C08E248E4D5DB923B8DA58F2B2A
:1010D0009CE33AE352DBB63B99A5FB2A32E52DE2CD
:1010E000D1DADA3BA9A5652ACBE624E14FDAFD3B4C
:1010F000BCA5CE2965E81DE0CED9203CD3A5352975
:1011000002EA19DF4DD9423CEDA59A28A1EB18DE81
:10111000CDD8643C0BA6FE2741ED19DD4DD8853CAA
:101120002CA66027E3EE1EDCCDD7A53C50A6C12639
:1011300087F026DB4ED7C53C78A620262CF231DA84
:10114000CFD6E43CA4A67E25D2F33FD951D6033DA9
:10115000D3A6DA2479F551D8D3D5213D05A7352476
:1011600021F766D756D53F3D3BA78E23CAF87FD6D9
:10117000D8D45B3D74A7E72273FA9BD55CD4783D45
:10118000B1A73D221DFCBBD4DFD3933DF1A7932132
:10119000C7FDDFD363D3AF3D34A8E72072FF06D38A
:1011A000E8D2C93D7BA83A201C0131D26DD2E33D83
:1011B000C5A88C1FC70261D1F2D1FC3D12A9DC1E6B
:1011C000710494D078D1153E63A92B1E1B06CCCF99
:1011D000FED02D3EB7A9791DC40707CF85D0453E67
:1011E0000FAAC61C6D0947CE0CD05C3E6AAA121C21
:1011F000140B8CCD94CF723EC8AA5D1BBB0CD4CC13
:101200001CCF883E29ABA71A610E21CCA5CE9D3EEE
:101210008EABEF19051073CB2ECEB13EF6AB37195E
:10122000A811C9CAB7CDC53E61AC7E184A1324CAFD
:1012300041CDD83ED0ACC417EA1483C9CCCCEB3E28
:1012400041AD09178816E8C857CCFD3EB6AD4C161F
:10125000241850C8E2CB0F3F2EAE9015BE19BEC762
:101260006ECB203FA9AED214561B31C7FBCA303F0C
:1012700028AF1314EB1CA8C688CA403FA9AF54136B
:101280007E1E25C615CA4F3F2DB094120E20A7C54D
:10129000A3C95D3FB5B0D3119C212DC532C96B3FA9
:1012A00040B112112623B9C4C1C8783FCDB1501046
:1012B000AE244AC451C8853F5EB28D0F3226E0C3CA
:1012C000E1C7913FF2B2CA0EB3277BC372C79C3FFE
:1012D00088B3060E31291CC303C7A73F22B4410DB2
:1012E000AA2AC1C295C6B13FBEB47C0C212C6DC2E6
:1012F00027C6BB3F5EB5B70B932D1DC2BAC5C43F11
:1013000000B6F10A022FD3C14EC5CC3FA5B62B0AB9
:101310006C308EC1E2C4D43F4DB76409D2314FC1A5
:1013200076C4DB3FF8B79D08343315C10CC4E13FE8
:10133000A6B8D6079234E0C0A1C3E73F56B90E075E
:10134000EB35B1C038C3EC3F09BA46063F3788C019
:10135000CFC2F13FBFBA7E058E3864C066C2F53F8A
:1013600077BBB504D93945C0FEC1F83F32BCED03A7
:101370001E3B2CC097C1FB3FF0BC24035F3C19C04F
:1013800030C1FD3FB0BD5B029A3D0BC0CAC0FF3FFC
:1013900073BE9201D03E03C065C0004038BFC90093
:1013A0002DE9F05F0546002092469B46884606469A
:1013B000814640241BE0284641464746224600F02D
:1013C00007F953465A46C01A914110D311461846A0
:1013D000224600F0EEF82D1A67EB01084F46224630
:1013E0000120002100F0E5F817EB00094E41201E16
:1013F000A4F10104DFDC484631462A464346BDE8F5
:10140000F09FD2B201E000F8012B491EFBD27047D9
:101410000022F6E710B513460A4604461946FFF7C0
:10142000F0FF204610BD2DE9FE4F81EA030404F0D1
:10143000004421F0004100944FF0000B23F00043E2
:1014400050EA01045ED052EA03045BD0C3F30A54AD
:10145000C1F30A552C44A4F2F3340194A0FB0254C6
:10146000C1F3130141F48011C3F3130343F4801358
:1014700001FB024400FB034E840A970A44EA8154AC
:1014800047EA8357A4FB076802958D0A05FB078589
:101490004FEA932C04FB0C542705029D4FEA065893
:1014A00047EA1637B5EB08056EEB070C870E920E70
:1014B00047EA811742EA8312A7FB0201B6EB0B0150
:1014C00064EB00042B0D43EA0C335E1844EB1C5014
:1014D000DA465146E7FB0201C5F313044FEA0B332A
:1014E00043EA14534FEA0432019C43EA0603A4F191
:1014F0000C040294009CCDE900B400F0BFF803B0E6
:10150000BDE8F08F00200146F9E70EB540F2334107
:1015100002910021CDE900110A460B4600F0AEF819
:1015200003B000BDC1F30A52C1F3130140F2FF330F
:1015300041F480119A4202DA00200146704740F2DD
:1015400033439A42A2F2334202DC524200F040B8E6
:1015500000F02FB800F0004230F000400AD0C10D7A
:1015600001F56071C0F3160042EA0151C20840075C
:101570001143704700200146704701F0004330B42A
:1015800021F0004150EA010206D00A0DA2F5607276
:10159000C1F31301002A02DC30BC00207047440F65
:1015A00044EAC104C100E01830BC00EBC25000F0B6
:1015B0001FB8202A04DB203A00FA02F1002070470D
:1015C0009140C2F1200320FA03F319439040704781
:1015D000202A04DB203A21FA02F00021704721FA88
:1015E00002F3D040C2F120029140084319467047EF
:1015F0000029A8BF7047401C490008BF20F0010027
:10160000704710B4B0FA80FC00FA0CF050EA010404
:1016100004BF10BC704749B1CCF1200421FA04F496
:1016200011FA0CF118BF012121430843A3EB0C016F
:10163000CB1D4FEA00614FEA102042BF002010BCD2
:10164000704700EBC35010440029A4BF10BC704782
:10165000401C490008BF20F0010010BC704710B5C5
:10166000141E73F1000408DA401C41F100019218C5
:101670005B411A4301D120F0010010BD2DE9F04D6E
:1016800092469B4611B1B1FA81F202E0B0FA80F2C3
:1016900020329046FFF78DFF04460F4640EA0A00CD
:1016A00041EA0B0153465A46084313D0114653EA08
:1016B000010019D0C8F140025046FFF789FF0546E6
:1016C0000E46504659464246FFF773FF084305D081
:1016D000012004E020463946BDE8F08D0020054396
:1016E00046EAE0762C4337430A986305E40AA0EB08
:1016F00008000022FD0A44EA47540A3002D50020BF
:101700000146E9E7010510196941DDE908450019BD
:101710006941BDE8F04DA2E72DE9F04D00231A46DE
:101720001B1A8A4103DB00200146BDE8F08DC1F39E
:101730000A52C1F3130141F480154FF0000BD10799
:1017400002D100186D41521E0027044640F2FF11DD
:10175000384601EB620A3E468046024600204FF4BE
:101760008011FFF735FFC2197141BB1846EB01002C
:10177000B4EB030C75EB000C04D3E41A65EB000525
:1017800017460E46241908F101006D4180463428A1
:10179000E3DDF91946EB0600091BA84103D24FF01F
:1017A000FF32134601E0002213461BEB070046EB15
:1017B0000A51BDE8F04DFFF752BF0000064C074D3F
:1017C00006E0E06840F0010394E807009847103411
:1017D000AC42F6D3FEF7DCFC543300087433000847
:1017E00010B50146806B026C12F0500F05D0026CF0
:1017F000D20626D500F085FA10BD016C41F40071C7
:10180000016401688A6812F0405F17D1027EAAB9AC
:10181000CA6A12F4700F02D08A6852050ED44A6860
:1018200022F020024A60016C21F480710164016C95
:10183000C90403D4016C41F00101016400F028FAED
:1018400010BD806BC26CBDE810400846104710B553
:10185000806B40210164416C41F00401416400F05F
:1018600050FA10BD10B5806B00F04AFA10BD0000B0
:10187000014800F047BA000034280020464910B55E
:101880004A6822F440324A604A6843681A434A6010
:1018900001684A6822F480724A6001684A680369F4
:1018A00042EA03224A6001684A6822F040724A60B4
:1018B00001684A6883681A434A6001688A6822F4AA
:1018C00000628A6001688A68C3681A438A60816A14
:1018D0006FF07062D14201688A6822F070628A609B
:1018E00001688A680CD0836A1A438A6001688A6832
:1018F00022F040528A6001688A68C36A1A4301E094
:1019000022F040528A6001688A6822F002028A60EE
:1019100001688A68037E42EA43028A6090F82010D8
:10192000002901684A680FD042F400624A600168E9
:101930004A6822F460424A6001684A68174C436A68
:1019400004EB43331A4301E022F400624A60016869
:10195000CA6A22F47002CA620168CA6A838B104C98
:1019600004EB03531A43CA6201688A6822F40072C6
:101970008A6001688A6890F8303042EA43228A60BF
:1019800001688A6822F480628A6001688A68406916
:1019900042EA8020886010BD0023014000E0FFFF84
:1019A0000000F0FFFEE70000014800F0EBBB000084
:1019B0007C28002001681823CAB2103AB2FBF3F267
:1019C000054B6FF30901032A9B5CC36500D9091D10
:1019D00081650846704700003C33000810B5014699
:1019E00000208B698A6A4FF0C07453B1B3F5005F71
:1019F00015D072B1012A0CD0022A0AD0032A09D1CB
:101A000004E01AB1012A06D0022A03D1C96AC90129
:101A100000D5012010BDC96AA142FAD010BD002A2C
:101A2000F7D0012AF2D0022AF3D0032AF3D010BD56
:101A300030B50468256825F4802525600468636056
:101A40008368402B036803D099600068C26030BD92
:101A50009A600068C16030BD704772B6FEE7000052
:101A60002DE9F0414FF480622DED028B2D492E4877
:101A7000FEF7A6FB2C4E2D4F2D4D01244FF4007880
:101A800056F8240001B200EE101A001400EE900A7D
:101A9000B8EEC00AF8EEE00A20EE000A00EEA00A56
:101AA00010EE100AFFF756FD41EC100B01F0D8FBC9
:101AB00051EC100BFFF761FD00EE100AFCEEC00ABE
:101AC000B4EEC80A10EE900AF1EE10FA47F82400BE
:101AD00002DDB0EE408AAC80641CA4B24445CFD392
:101AE00068881449B1FBF0F02978B0FBF1F0A860E8
:101AF000FFF70BFD9FED101B53EC112BFFF793FC31
:101B000041EC180BA888FFF700FD53EC182BFFF7EA
:101B10008AFCFFF707FDC5E90401BDEC028BBDE8B7
:101B2000F08100003408002034180020242900200F
:101B30001800002000BD0105000000000000503F1B
:101B40007047000078B50024009490F83C20012AEA
:101B500019D0012280F83C200A6807230568092A69
:101B600013D9EE680A3A02EB420293409E43EE60BC
:101B70000B788A680A3B03EB43039A400368DD68ED
:101B80002A43DA6010E0022078BD2E6902EB42029F
:101B900093409E432E610B788A6803EB43039A407F
:101BA00003681D692A431A614A681F23072A13D252
:101BB00005686E6B521E02EB820293409E436E6379
:101BC0000B790A885B1E92B203EB83039A40036889
:101BD0005D6B2A435A6327E005680D2A12D22E6BEB
:101BE000D21F02EB820293409E432E630B790A8838
:101BF000DB1F92B203EB83039A4003681D6B2A43F9
:101C00001A6311E0EE6A0D3A02EB820293409E43A2
:101C1000EE620B790A880D3B92B203EB83039A4084
:101C20000368DD6A2A43DA62164B0568144A9D424E
:101C300006D10D68122D03D1556845F48005556015
:101C400005689D4218D10B68102B01D0112B13D1C0
:101C5000536843F400035360096810290CD10A4902
:101C60000A4A0968B1FBF2F101EB8101490000E089
:101C7000491E00910029FBD180F83C40002078BD2E
:101C800000230140002001401400002040420F00CA
:101C90002DE9F04100681649884227D1154800F027
:101CA000F1F9154E154D002270882860014606F5A1
:101CB00000674FF48064686036F812304FEA034CD6
:101CC00047F822C0834200D318468B4200D81946F9
:101CD000521CA242F0DBC5E90001FFF7C1FE22461B
:101CE000BDE8F0410449034800F022B9BDE8F081A5
:101CF0000020014034280020340000200000002093
:101D00007047704770B5044600680668456816F06D
:101D1000020F05F020012AD049B3216CC90603D473
:101D2000216C41F400712164816811F0405F17D18A
:101D3000217EA9B9C16A11F4700F02D081684905EA
:101D40000ED4416821F020014160206C20F48070A5
:101D50002064206CC00403D4206C40F00100206497
:101D60002046FFF795FF21686FF01200086016F01B
:101D7000040F05F0800132D089B3206CC00603D473
:101D8000206C40F4005020642068816811F4401FEA
:101D90001ED1816B11F4401F02D08168490517D410
:101DA0004168490514D4816811F0405F10D1217E4B
:101DB00071B9416821F080014160206C20F48050AD
:101DC0002064206CC00503D4206C40F00100206426
:101DD0002046FFF7B5FE21686FF00C00086016F092
:101DE000010F05F040010FD071B120680068C007F5
:101DF0000AD0206C40F480302064204600F043F884
:101E000021686FF00100086016F0200F05F0806176
:101E10000ED000290CD0606C40F002006064206895
:101E20006FF0200505602046FFF76BFF2068056016
:101E300070BD70B504004FF0000503D0206C002683
:101E400010B107E0012070BD204600F01DF8666467
:101E500084F83C60206CC00610D4206C20F48850BC
:101E600040F0020020642046FFF708FD6664206C05
:101E700020F0020040F00100206400E0012584F819
:101E80003C60284670BD704770B586B00646142188
:101E90006846FFF7BDFA2149306888423BD12048A7
:101EA0000025016841F480710160006800F48070D1
:101EB00005901B481438016841F001010160006879
:101EC000694600F001000590012000900320CDE953
:101ED0000105144800F0C8FA144C1348C4E9000581
:101EE0000015A560C4E90350400060618000C4E9AA
:101EF000060525622046656200F014FA08B1FFF776
:101F0000ACFDB463002211461220A66300F012FC5F
:101F1000122000F001FC06B070BD0000002001405E
:101F20004438024000000240106402407C28002037
:101F3000F8B5044600200E46009094F83C100129A4
:101F400007D0012184F83C1021688B68DB0702D0A0
:101F500011E00220F8BD8B6843F001038B6040491B
:101F6000404B0968B1FBF3F101EB410100E0491E70
:101F700000910029FBD121688B68DB0503D58B68B4
:101F800023F480738B6021688B68DB075DD0236C42
:101F900040F20165AB4343F480732364496849050B
:101FA00005D5216C21F4005141F480512164216C4C
:101FB000C90404D5616C21F00601616400E060642D
:101FC00084F83C00A16B2948274DC863A16B2848C1
:101FD0000864A16B2748C86421686FF0220008607C
:101FE0002068416841F0806141602068816841F467
:101FF000807181602168134632464C31A06B00F03D
:10200000FBF968681C49C006206806D0884224D1C4
:10201000816811F0405F13D01FE08842F8D0174A62
:10202000904203D1D1F80423D206F1D0144A904251
:1020300013D1D1F8041301F01F011029E8D30CE0EB
:10204000816841F08041816007E0206C40F0100021
:102050002064606C40F0010060640020F8BD000066
:102060001400002040420F0000230140E117000847
:10207000651800084F1800080020014000210140A9
:102080000022014010B50446002094F83C100129BC
:102090000CD0012184F83C1021688A6822F00102EA
:1020A0008A6021688A68D20702D01DE0022010BD34
:1020B0008A6822F480728A60A16B91F83520022A26
:1020C00007D1084600F014F818B1216C41F0400126
:1020D000216421684A6822F080624A60216C21F400
:1020E000885141F001012164002184F83C1010BDA9
:1020F0002DE9F0410446876D00F0AEFA064694F8EB
:1021000035000025022806D08020606584F8345010
:102110000120BDE8F0812068016821F0160101600E
:102120002068416921F080014161206C08B9A06CF0
:1021300020B12068016821F0080101602068016871
:1021400021F0010101600CE000F086FA801B0528F7
:1021500007D920206065032084F8350084F83450C6
:10216000D7E720680068C007EED194F85C103F20E4
:102170008840B860012084F8350084F8345000208D
:10218000C7E700002DE9F84304464FF00009CDF8F9
:10219000009063484FF41651A56D0068B0FBF1F74D
:1021A0002E6894F85C10082000FA01F131420FD03B
:1021B00021680A6852070BD50A6822F004020A60F7
:1021C00094F85C108840A860606D40F00100606584
:1021D00094F85C104FF0010808FA01F0304208D082
:1021E00021684969090604D5A860606D40F00200C5
:1021F000606594F85C1004208840304208D0216863
:102200000968890704D5A860606D40F00400606526
:1022100094F85C1010208840304218D0216809687A
:10222000090714D5A86020680168490304D500682F
:10223000000308D5A16C07E00168C90503D4016853
:1022400021F008010160216C09B12046884794F80B
:102250005C1020208840304231D021680968C906CE
:102260002DD5A86094F8350005282068016806D0AF
:10227000490347D5006800031DD4616C1CE021F0C0
:10228000160101602068416921F080014161206CE4
:1022900008B9A06C20B12068016821F00801016034
:1022A00094F85C103F208840A86084F8358084F85A
:1022B0003490216D1FE0E16B09B120468847606DC5
:1022C00000282BD0606DC00714D0052084F835009D
:1022D0002068016821F0010101600098401C009015
:1022E000B84203D820680068C007F6D184F835806A
:1022F00084F83490E16C002910D001B02046BDE88C
:10230000F04308470168C905D5D4016821F01001E0
:10231000016084F8358084F83490CCE7BDE8F88318
:10232000140000202DE9F041044600F095F906461E
:102330005CB1022084F83500002584F83450206810
:10234000016821F0010101600DE00120BDE8F0818C
:1023500000F082F9801B052805D920206065032044
:1023600084F83500F2E720680068C007F0D12268E1
:10237000116820480140D4E901031843D4E9033629
:102380003343184363691843A3691843E369184347
:10239000236A18430843616A042903D1D4E90B1363
:1023A00019430843106020684069666A20F00701FD
:1023B00030460E43012704280CD1A06A0643E06A88
:1023C00040B12046FFF70AFB20B14020606584F849
:1023D0003570BAE7206846612046FFF7EBFA94F8BB
:1023E0005C203F2191408160656584F83570002054
:1023F000ACE700003F8010F02DE9F0410446866D07
:1024000090F83400002501280DD0012084F8340014
:1024100094F835700020012F07D084F8340002258D
:102420002846BDE8F0810220FBE7022784F83570DA
:1024300060652046FFF7FCFA94F85C103F20884066
:10244000B0602068016841F016010160206C20B185
:102450002068016841F0080101602068016841F0CE
:1024600001010160DCE700002DE9F84FDFF8BCA1B5
:102470000022012503264FF00F090AF1040BAAF1EF
:10248000040E00BF0B6805FA02F42340A34270D18A
:102490000F7907F00307012F01D0022F16D18768AB
:1024A0004FEA420806FA08FC27EA0C07D1F80CC0EC
:1024B0000CFA08FC4CEA070CC0F808C04768A743B0
:1024C0000C79C4F3001494403C4344600C79E44319
:1024D000A4070AD0C4684FEA420C06FA0CF7BC43C2
:1024E0008F6807FA0CF72743C7600C7904F00304E0
:1024F000022C12D1D40800EB840CDCF820405707E2
:10250000FF0E09FA07F824EA0804D1F8108008FA47
:1025100007F848EA0408CCF8208004684FEA420C27
:1025200006FA0CF7BC430F7907F0030707FA0CF71C
:10253000274307604C6814F4403F70D03C4C276838
:1025400047F480472760246822F0030704F480449E
:102550000094384C07EB040CDCF8084897074FEA66
:10256000177809FA08F7BC43334FB84202D1002765
:1025700024E054E0314FB84201D101271EE0304F32
:10258000B84201D1022719E02E4FB84201D10327EA
:1025900014E02D4FB84201D104270FE02B4FB84271
:1025A00001D105270AE02A4FB84201D1062705E0EC
:1025B000284FB84201D1072700E0082707FA08F79B
:1025C0002743CCF80878DAF800405746D1F804C021
:1025D0009C435FEACC2C00D51C433C60DBF80040F8
:1025E0005F46D1F804C09C435FEA8C2C00D51C43A5
:1025F0003C60DEF800407746D1F804C09C435FEAB7
:102600008C3C00D51C433C60084F083F3C68D1F827
:1026100004C09C435FEACC3C00D51C433C60521C88
:10262000102AFFF42FAFBDE8F88F0000083C0140EE
:1026300044380240003001400000024000040240E3
:1026400000080240000C024000100240001402404A
:1026500000180240001C02400148806870470000DA
:1026600008000020024881680278114481607047A8
:10267000080000200B4810B5016841F400710160AA
:10268000016841F480610160016841F4807101607A
:10269000032000F06FF80F2000F006F800F024F897
:1026A000002010BD003C024070B50D4D04464FF4B3
:1026B0007A712878B1FBF0F00A490968B1FBF0F0B3
:1026C00000F0EAFA48B9102C07D200222146501E29
:1026D00000F030F800206C6070BD012070BD00007B
:1026E00008000020140000200A4808B5016841F4E1
:1026F00080410160006800F4804000900548001FA0
:10270000016841F080510160006800F08050009045
:1027100008BD000044380240002809DB00F01F0219
:10272000012191404009800000F1E020C0F8001133
:1027300070470000F0B40E4B1B680C46C3F3022335
:10274000C3F10705042D00D90425191D072901D25D
:10275000002300E0DB1E012606FA05F1491E214098
:1027600099409E40761E16403143F0BC00F068BD93
:102770000CED00E0064900F0070208684FF6FF0381
:10278000184040EA0220034A1043086070470000E6
:102790000CED00E00000FA052DE9F0470E460500BB
:1027A00065D0DFF81481D8F80000F7B200F0070018
:1027B000B04207D288F80070D8F8000000F0070097
:1027C000B04254D128683D4C810712D5400703D54B
:1027D000206840F4E05020602878000703D5206886
:1027E00040F4604020602068A96820F0F0000843B1
:1027F00020602878C0072DD0304968680839012842
:1028000012D0022813D0032811D0096889070029A3
:102810002DDA216821F0030101432160FFF71CFF3D
:10282000814641F2883A0EE009688903EFE70968BA
:102830008901ECE7FFF710FFA0EB0901514502D930
:102840000320BDE8F0872068696800F00C00B0EB59
:10285000810FEFD1D8F80010404601F00701B142D6
:1028600007D90770006800F00700B04201D00120CE
:10287000E7E72878400705D52068E96820F4E050AC
:10288000084320602878000706D52068296920F4CD
:10289000604040EAC100206000F018F82168084A52
:1028A000C1F30311515CC84006490860064800683E
:1028B000FFF7FAFE0020C4E7003C0240083802405F
:1028C00044330008140000200C000020154810B507
:1028D000006810F00C02144813D04110042A0FD0E5
:1028E000082A0ED10F4C241F2268236802F03F02F1
:1028F0005B0207D52068C0F38810A0FB010106E049
:10290000084610BD2168C1F38811A1FB0001002316
:10291000FEF746FD2168C1F30141491C4900B0FBA7
:10292000F1F010BD083802400024F4002DE9F84F02
:1029300004006ED02078DFF84C93C007A9F104059D
:102940004AD009F104000168C1F38101012908D0CE
:102950000068C0F3810002280AD1D9F800004002C3
:1029600006D52868800337D560680028E1D033E0B9
:102970006068B0F5803F10D0B0F5A02F286810D067
:1029800020F480302860286820F480202860606867
:10299000A8B1FFF761FE06460DE0286840F48030DC
:1029A000F4E740F480202860F7E700BFFFF754FE0B
:1029B000801B642873D828688003F7D50CE0FFF7E4
:1029C0004BFE064605E000BFFFF746FE801B64286D
:1029D000F0D828688003F7D42078DFF8AC8280072D
:1029E0004FF0000A3ED5A748001D016811F00C0FFA
:1029F00008D00068C0F3810002280BD1D9F800008C
:102A0000400207D42868800716D5E068012800D165
:102A100012E033E1E068B8B10120C8F80000FFF728
:102A20001BFE064605E000BFFFF716FE801B0228CE
:102A3000C0D828688007F7D52868216920F0F800F9
:102A400040EAC10028600DE0C8F800A0FFF704FECE
:102A5000064604E0FFF700FE801B02281FD8286806
:102A60008007F7D42078000722D5864F8748616910
:102A7000703771B101210160FFF7EEFD064604E0F9
:102A8000FFF7EAFD801B022809D838688007F7D5D0
:102A90000EE0C0F800A0FFF7DFFD064605E082E08B
:102AA000FFF7DAFD801B02287DD838688007F7D44D
:102AB0002078400768D5DFF8CCB100270BF13C0B3C
:102AC000DBF80000C0000BD4DBF8001041F08051AF
:102AD000CBF80010DBF80000012700F080500090D8
:102AE0006B4E3068C00510D4306840F480703060A0
:102AF000FFF7B2FD009005E0FFF7AEFD0099401A28
:102B0000022850D83068C005F6D55E4EA0686C36F5
:102B100001280FD00528306810D020F00100306067
:102B2000306820F004003060A068B8B1FFF794FD71
:102B300000900FE0306840F00100F4E740F004003E
:102B40003060F7E7FFF788FD0099411A41F28830BD
:102B5000814266D830688007F4D50EE0FFF77CFD2F
:102B6000009007E0FFF778FD0099411A41F28830A4
:102B7000814256D830688007F4D42FB1DBF80010BA
:102B800021F08051CBF80010A069C8B33D49091D60
:102B90000968C1F3810102294AD00228504607D0B2
:102BA000C8F8600000E03CE0FFF756FD04463BE05B
:102BB0004746C8F86000FFF74FFD064605E000BF36
:102BC000FFF74AFD801B02282BD828688001F7D424
:102BD000D4E907010843A16A2E4A490802EB0141E2
:102BE000626A41EA8211084394F82C1040EA0161BC
:102BF000C9F8001001203866FFF72EFD044606E0F4
:102C00003EE000BFFFF728FD001B022809D8286816
:102C10008001F7D534E000BFFFF71EFD001B02283E
:102C200002D90320BDE8F88F28688001F4D427E09A
:102C30000128F7D0D9F80000E26900F48001914240
:102C40001CD1226A00F03F01914217D147F6C071B2
:102C5000626A0140B1EB821F10D1A26A4FF0FF33CC
:102C600000F4403103EB5202B1EB024F06D194F86D
:102C70002C1000F07060B0EB016F01D00120D1E7A3
:102C80000020CFE70438024000004742800E474250
:102C9000007000400000FFFF10B5401EB0F1807FC3
:102CA00001D3012010BD4FF0E02460610F216017B7
:102CB00000F0C6FA0020A06107202061002010BDAE
:102CC00070B590F83C20012A32D0012480F83C40B5
:102CD000022280F83D2003685A689D6822F0700641
:102CE0000A6832435A60134B02689A4214D0B2F118
:102CF000804F11D0104B9A420ED0104B9A420BD0FD
:102D00000F4B9A4208D00F4B9A4205D00E4B9A4275
:102D100002D00E4B9A4204D1496825F08003194332
:102D2000916080F83D40002180F83C10084670BD5D
:102D3000022070BD00000140000400400008004077
:102D4000000C004000040140004001400018004019
:102D500010B5040003D094F83D0010B107E0012045
:102D600010BD002084F83C00204600F01FF802202F
:102D700084F83D00211D206800F0C8F9012084F886
:102D8000460084F83E0084F83F0084F8400084F850
:102D9000410084F8420084F8430084F8440084F839
:102DA000450084F83D00002010BD000008B5006813
:102DB0000649884208D10648016841F002010160D5
:102DC000006800F00200009008BD00000004004010
:102DD0004038024090F83D10012901D00120704791
:102DE000022180F83D1000681149884214D0B0F1EA
:102DF000804F11D00F4988420ED00F4988420BD026
:102E00000E49884208D00E49884205D00D498842B3
:102E100002D00D49884204D1816801F007010629DA
:102E200003D0016841F001010160002070470000FB
:102E3000000001400004004000080040000C004079
:102E400000040140004001400018004070B50446F5
:102E500090F83C000025012817D0012684F83C603A
:102E6000022084F83D002068826822F0770222F474
:102E70007F4282600868502838D00DDC20284FD06F
:102E800005DC90B3102811D14AE0022070BD302833
:102E900046D040280AD13BE060282FD070280DD0C2
:102EA000B0F5805F03D0B0F5005F12D0012584F843
:102EB0003D60002084F83C00284670BDCB68D1E915
:102EC0000121206800F086F92068816841F07701CF
:102ED00009E0CB68D1E90121206800F07BF9206886
:102EE000816841F480418160E1E719E0CA6849687E
:102EF000206800F081F95021206806E0CA6849681E
:102F0000206800F08AF96021206800F06DF9CEE7B2
:102F1000CA684968206800F06FF940212068F4E72A
:102F2000226801461046F0E7FEE700007FB5002466
:102F300015480094019402941249039401604FF4DF
:102F40008031C0E901140461047680F8204009034F
:102F5000C1620125C5614910C460816280F83040BA
:102F60004561FEF766FF08B1FEF777FDCDE9004544
:102F7000694605480294FEF7E5FD002801D0FEF7FA
:102F80006CFD7FBD0020014034280020094808B5B1
:102F9000016841F4800101600068002200F48000B3
:102FA000009011463820FFF7C5FBBDE808403820E7
:102FB000FFF7B2BB30380240094808B5016841F05C
:102FC00080010160016801F080010091016841F019
:102FD00001010160006800F00100009008BD0000E0
:102FE0003038024010B586B000241948009401948E
:102FF00002940394049415490594016015490978D5
:10300000491EC0E9011414490988491EC0E9031486
:1030100080218161FFF79CFE08B1FEF71EFD4FF491
:103020008050009069460A48FFF710FF08B1FEF78C
:1030300014FD2020CDE9040404A90548FFF740FE53
:10304000002801D0FEF709FD06B010BD00040040C5
:10305000DC280020180000201A000020FEE7FEE710
:1030600070477047FFF7FEBA30B593B0302168461D
:10307000FEF7CEF914210CA8FEF7CAF91D48002569
:10308000016841F080510160006800F080501190AB
:103090001948016841F4804101600068022400F48D
:1030A0008040119001200090000401908001CDE942
:1030B000064008AA0420A82182E813000B90684665
:1030C000FFF734FC08B172B6FEE70CA90F2081E8C7
:1030D00031004FF4A0500F904FF480501090052114
:1030E0000CA8FFF759FB002801D072B6FEE713B019
:1030F00030BD0000403802400070004002480168C6
:1031000041F470010160704788ED00E0F0B502689D
:10311000254C264D264E274F274B4FF0804CA04282
:1031200009D0604507D0A84205D0B04203D0B842CC
:1031300001D0984204D122F0700E4A6842EA0E0291
:10314000A0421BD0604519D0A84217D0B04215D07C
:10315000B84213D0984211D0184DA8420ED0184D45
:10316000A8420BD0174DA84208D0174DA84205D051
:10317000164DA84202D0164DA84203D122F4407544
:10318000CA682A434D6922F080022A4302608A6895
:10319000C2620A688262A04201D0984201D10969E4
:1031A000016301214161F0BD0000014000040040C5
:1031B00000080040000C00400004014000400140B5
:1031C000004401400048014000180040001C00403D
:1031D0000020004010B5846842EA032224F47F44B2
:1031E0000A432243826010BD826822F070020A43C3
:1031F00042F007018160704710B5036A046A24F049
:1032000001040462846924F0F00444EA021423F007
:103210000A020A438461026210BD10B5036A23F0FA
:10322000100303628369046A23F4704343EA0232A1
:1032300024F0A00343EA01118261016210BDFEE7A0
:103240000907090E002804DB00F1E02080F80014D3
:10325000704700F00F0000F1E02080F8141D704767
:1032600000B52DED048BB0EE409AF0EE609A83B07D
:1032700051EC190BFEF750FA41EC180B18EE100A3E
:1032800018EE901A8DED008B002818BF012008431E
:1032900020F00040C0F17F6000F1E040C00F14D08A
:1032A00019EE101A19EE900A8DED009B002918BF37
:1032B0000121084320F00040C0F17F6000F1E040B0
:1032C000C00F04BF012000F017F8B0EE480A03B0A9
:1032D000F0EE680ABDEC048B00BD02E008C8121FC6
:1032E00008C1002AFAD170477047002001E001C1EF
:1032F000121F002AFBD17047014908607047000087
:1033000030000020FFF7B6F9FFF7AEFEFFF754FEDE
:10331000FFF73CFEFFF70AFEFFF764FE4FF4806202
:1033200003490448FEF704FE0348FFF753FDFEE798
:103330003400002034280020DC280020000610166D
:103340000006101600000000000000000102030447
:10335000060708097433000800000020340000004C
:10336000DA320008A833000834000020F4340000EA
:10337000EA32000800000000000000000100000028
:1033800010000000000000000024F400010090067E
:10339000000000000000000000000000000000002D
:0833A000000000000000000025
:040000050800018965
:00000001FF
